{
  "contractName": "Crowdsale",
  "abi": [
    {
      "constant": true,
      "inputs": [],
      "name": "rate",
      "outputs": [
        {
          "name": "",
          "type": "uint256"
        }
      ],
      "payable": false,
      "stateMutability": "view",
      "type": "function"
    },
    {
      "constant": false,
      "inputs": [
        {
          "name": "_rate",
          "type": "uint256"
        }
      ],
      "name": "setRate",
      "outputs": [
        {
          "name": "",
          "type": "bool"
        }
      ],
      "payable": false,
      "stateMutability": "nonpayable",
      "type": "function"
    },
    {
      "constant": true,
      "inputs": [],
      "name": "cap",
      "outputs": [
        {
          "name": "",
          "type": "uint256"
        }
      ],
      "payable": false,
      "stateMutability": "view",
      "type": "function"
    },
    {
      "constant": true,
      "inputs": [],
      "name": "weiRaised",
      "outputs": [
        {
          "name": "",
          "type": "uint256"
        }
      ],
      "payable": false,
      "stateMutability": "view",
      "type": "function"
    },
    {
      "constant": false,
      "inputs": [],
      "name": "togglePurchases",
      "outputs": [
        {
          "name": "",
          "type": "bool"
        }
      ],
      "payable": false,
      "stateMutability": "nonpayable",
      "type": "function"
    },
    {
      "constant": true,
      "inputs": [],
      "name": "wallet",
      "outputs": [
        {
          "name": "",
          "type": "address"
        }
      ],
      "payable": false,
      "stateMutability": "view",
      "type": "function"
    },
    {
      "constant": true,
      "inputs": [],
      "name": "isPurchaseEnabled",
      "outputs": [
        {
          "name": "",
          "type": "bool"
        }
      ],
      "payable": false,
      "stateMutability": "view",
      "type": "function"
    },
    {
      "constant": false,
      "inputs": [
        {
          "name": "tokenContract",
          "type": "address"
        }
      ],
      "name": "assignTokenContract",
      "outputs": [],
      "payable": false,
      "stateMutability": "nonpayable",
      "type": "function"
    },
    {
      "constant": true,
      "inputs": [],
      "name": "owner",
      "outputs": [
        {
          "name": "",
          "type": "address"
        }
      ],
      "payable": false,
      "stateMutability": "view",
      "type": "function"
    },
    {
      "constant": false,
      "inputs": [],
      "name": "selfDestruct",
      "outputs": [],
      "payable": false,
      "stateMutability": "nonpayable",
      "type": "function"
    },
    {
      "constant": false,
      "inputs": [
        {
          "name": "beneficiary",
          "type": "address"
        }
      ],
      "name": "buyTokens",
      "outputs": [],
      "payable": true,
      "stateMutability": "payable",
      "type": "function"
    },
    {
      "constant": true,
      "inputs": [],
      "name": "hasEnded",
      "outputs": [
        {
          "name": "",
          "type": "bool"
        }
      ],
      "payable": false,
      "stateMutability": "view",
      "type": "function"
    },
    {
      "constant": false,
      "inputs": [
        {
          "name": "newOwner",
          "type": "address"
        }
      ],
      "name": "transferOwnership",
      "outputs": [],
      "payable": false,
      "stateMutability": "nonpayable",
      "type": "function"
    },
    {
      "constant": true,
      "inputs": [],
      "name": "token",
      "outputs": [
        {
          "name": "",
          "type": "address"
        }
      ],
      "payable": false,
      "stateMutability": "view",
      "type": "function"
    },
    {
      "inputs": [
        {
          "name": "_wallet",
          "type": "address"
        },
        {
          "name": "_isPurchaseEnabled",
          "type": "bool"
        },
        {
          "name": "_rate",
          "type": "uint256"
        },
        {
          "name": "_cap",
          "type": "uint256"
        }
      ],
      "payable": false,
      "stateMutability": "nonpayable",
      "type": "constructor"
    },
    {
      "payable": true,
      "stateMutability": "payable",
      "type": "fallback"
    },
    {
      "anonymous": false,
      "inputs": [
        {
          "indexed": true,
          "name": "from",
          "type": "address"
        },
        {
          "indexed": true,
          "name": "to",
          "type": "address"
        },
        {
          "indexed": false,
          "name": "value",
          "type": "uint256"
        },
        {
          "indexed": false,
          "name": "tokens",
          "type": "uint256"
        }
      ],
      "name": "Purchase",
      "type": "event"
    },
    {
      "anonymous": false,
      "inputs": [
        {
          "indexed": true,
          "name": "previousOwner",
          "type": "address"
        },
        {
          "indexed": true,
          "name": "newOwner",
          "type": "address"
        }
      ],
      "name": "OwnershipTransferred",
      "type": "event"
    }
  ],
  "bytecode": "0x6060604052341561000f57600080fd5b604051608080610cae83398101604052808051906020019091908051906020019091908051906020019091908051906020019091905050336000806101000a81548173ffffffffffffffffffffffffffffffffffffffff021916908373ffffffffffffffffffffffffffffffffffffffff16021790555083600260006101000a81548173ffffffffffffffffffffffffffffffffffffffff021916908373ffffffffffffffffffffffffffffffffffffffff16021790555082600660146101000a81548160ff021916908315150217905550816004819055508060038190555033600160006101000a81548173ffffffffffffffffffffffffffffffffffffffff021916908373ffffffffffffffffffffffffffffffffffffffff16021790555050505050610b6b806101436000396000f3006060604052600436106100d0576000357c0100000000000000000000000000000000000000000000000000000000900463ffffffff1680632c4e722e146100db57806334fcf43714610104578063355274ea1461013f5780634042b66f1461016857806340ecd03214610191578063521eb273146101be5780635f14b71a14610213578063646cf24d146102405780638da5cb5b146102795780639cb8a26a146102ce578063ec8ac4d8146102e3578063ecb70fb714610311578063f2fde38b1461033e578063fc0c546a14610377575b6100d9336103cc565b005b34156100e657600080fd5b6100ee6105b6565b6040518082815260200191505060405180910390f35b341561010f57600080fd5b61012560048080359060200190919050506105bc565b604051808215151515815260200191505060405180910390f35b341561014a57600080fd5b610152610629565b6040518082815260200191505060405180910390f35b341561017357600080fd5b61017b61062f565b6040518082815260200191505060405180910390f35b341561019c57600080fd5b6101a4610635565b604051808215151515815260200191505060405180910390f35b34156101c957600080fd5b6101d16106c3565b604051808273ffffffffffffffffffffffffffffffffffffffff1673ffffffffffffffffffffffffffffffffffffffff16815260200191505060405180910390f35b341561021e57600080fd5b6102266106e9565b604051808215151515815260200191505060405180910390f35b341561024b57600080fd5b610277600480803573ffffffffffffffffffffffffffffffffffffffff169060200190919050506106fc565b005b341561028457600080fd5b61028c6107f8565b604051808273ffffffffffffffffffffffffffffffffffffffff1673ffffffffffffffffffffffffffffffffffffffff16815260200191505060405180910390f35b34156102d957600080fd5b6102e161081e565b005b61030f600480803573ffffffffffffffffffffffffffffffffffffffff169060200190919050506103cc565b005b341561031c57600080fd5b6103246108b4565b604051808215151515815260200191505060405180910390f35b341561034957600080fd5b610375600480803573ffffffffffffffffffffffffffffffffffffffff169060200190919050506108c8565b005b341561038257600080fd5b61038a610a1d565b604051808273ffffffffffffffffffffffffffffffffffffffff1673ffffffffffffffffffffffffffffffffffffffff16815260200191505060405180910390f35b600080600073ffffffffffffffffffffffffffffffffffffffff168373ffffffffffffffffffffffffffffffffffffffff161415151561040b57600080fd5b610413610a43565b151561041e57600080fd5b34915061043660045483610a8290919063ffffffff16565b905061044d82600554610abd90919063ffffffff16565b600581905550600660009054906101000a900473ffffffffffffffffffffffffffffffffffffffff1673ffffffffffffffffffffffffffffffffffffffff166340c10f1984836000604051602001526040518363ffffffff167c0100000000000000000000000000000000000000000000000000000000028152600401808373ffffffffffffffffffffffffffffffffffffffff1673ffffffffffffffffffffffffffffffffffffffff16815260200182815260200192505050602060405180830381600087803b151561052057600080fd5b6102c65a03f1151561053157600080fd5b50505060405180519050508273ffffffffffffffffffffffffffffffffffffffff163373ffffffffffffffffffffffffffffffffffffffff167f46661dab58311a6838247afecbee792192b4f27fc8b3e7168c66bc55ec2e404e8484604051808381526020018281526020019250505060405180910390a36105b1610adb565b505050565b60045481565b60008060009054906101000a900473ffffffffffffffffffffffffffffffffffffffff1673ffffffffffffffffffffffffffffffffffffffff163373ffffffffffffffffffffffffffffffffffffffff1614151561061957600080fd5b8160048190555060019050919050565b60035481565b60055481565b60008060009054906101000a900473ffffffffffffffffffffffffffffffffffffffff1673ffffffffffffffffffffffffffffffffffffffff163373ffffffffffffffffffffffffffffffffffffffff1614151561069257600080fd5b600660149054906101000a900460ff1615600660146101000a81548160ff0219169083151502179055506001905090565b600260009054906101000a900473ffffffffffffffffffffffffffffffffffffffff1681565b600660149054906101000a900460ff1681565b6000809054906101000a900473ffffffffffffffffffffffffffffffffffffffff1673ffffffffffffffffffffffffffffffffffffffff163373ffffffffffffffffffffffffffffffffffffffff1614151561075757600080fd5b600073ffffffffffffffffffffffffffffffffffffffff16600660009054906101000a900473ffffffffffffffffffffffffffffffffffffffff1673ffffffffffffffffffffffffffffffffffffffff161415156107b457600080fd5b80600660006101000a81548173ffffffffffffffffffffffffffffffffffffffff021916908373ffffffffffffffffffffffffffffffffffffffff16021790555050565b600160009054906101000a900473ffffffffffffffffffffffffffffffffffffffff1681565b6000809054906101000a900473ffffffffffffffffffffffffffffffffffffffff1673ffffffffffffffffffffffffffffffffffffffff163373ffffffffffffffffffffffffffffffffffffffff1614151561087957600080fd5b600260009054906101000a900473ffffffffffffffffffffffffffffffffffffffff1673ffffffffffffffffffffffffffffffffffffffff16ff5b600080600354600554101590508091505090565b6000809054906101000a900473ffffffffffffffffffffffffffffffffffffffff1673ffffffffffffffffffffffffffffffffffffffff163373ffffffffffffffffffffffffffffffffffffffff1614151561092357600080fd5b600073ffffffffffffffffffffffffffffffffffffffff168173ffffffffffffffffffffffffffffffffffffffff161415151561095f57600080fd5b8073ffffffffffffffffffffffffffffffffffffffff166000809054906101000a900473ffffffffffffffffffffffffffffffffffffffff1673ffffffffffffffffffffffffffffffffffffffff167f8be0079c531659141344cd1fd0a4f28419497f9722a3daafe3b4186f6b6457e060405160405180910390a3806000806101000a81548173ffffffffffffffffffffffffffffffffffffffff021916908373ffffffffffffffffffffffffffffffffffffffff16021790555050565b600660009054906101000a900473ffffffffffffffffffffffffffffffffffffffff1681565b6000806000803414159150610a566108b4565b9050600660149054906101000a900460ff168015610a715750815b8015610a7b575080155b9250505090565b6000806000841415610a975760009150610ab6565b8284029050828482811515610aa857fe5b04141515610ab257fe5b8091505b5092915050565b6000808284019050838110151515610ad157fe5b8091505092915050565b600260009054906101000a900473ffffffffffffffffffffffffffffffffffffffff1673ffffffffffffffffffffffffffffffffffffffff166108fc349081150290604051600060405180830381858888f193505050501515610b3d57600080fd5b5600a165627a7a723058201c580e86e2242420bc15a18125bf226d7595481f86ee9bf67e764a47f3cdcdf80029",
  "source": "pragma solidity ^0.4.18;\n\nimport 'zeppelin-solidity/contracts/ownership/Ownable.sol';\nimport 'zeppelin-solidity/contracts/math/SafeMath.sol';\nimport './Token.sol';\n\ncontract Crowdsale is Ownable {\n\n  using SafeMath for uint256;\n  // Properties. ---------------------------\n  address public owner; // Owner of the contract.\n  address public wallet; // Address to which funds can be withdrawn.\n  uint256 public cap; // Fixed cap for this round of the sale.\n  uint256 public rate; // How many token units a buyer gets per wei.\n  uint256 public weiRaised; // Amount of raised money in wei.\n  Token public token; // The token being sold.\n  bool public isPurchaseEnabled; // Token purchases enabled/disabled.\n\n  // Events.\n  event Purchase(address indexed from, address indexed to, uint256 value, uint256 tokens);\n\n  /**\n  * @dev Constructor.\n  * @dev Set initial contract state.\n  */\n  function Crowdsale(\n    address _wallet,\n    bool _isPurchaseEnabled,\n    uint _rate,\n    uint _cap\n  )\n  public {\n    wallet = _wallet;\n    isPurchaseEnabled = _isPurchaseEnabled;\n    rate = _rate;\n    cap = _cap;\n    owner = msg.sender;\n  }\n\n  /*\n  * creates the token to be sold.\n  * Overrides OpenZepellin function to use\n  */\n  function assignTokenContract(address tokenContract) public onlyOwner {\n    require(token == address(0));\n    token = Token(tokenContract);\n  }\n\n  /*\n  * @dev Fallback function can be used to buy tokens.\n  */\n  function () external payable {\n    buyTokens(msg.sender);\n  }\n\n  /*\n  * @dev Low level token purchase function.\n  * @param beneficiary The address with which to send purchased tokens.\n  */\n  function buyTokens(address beneficiary) public payable {\n    require(beneficiary != address(0));\n    require(validPurchase());\n\n    uint256 weiAmount = msg.value;\n    // Calculate token amount to be created\n    uint256 tokens = weiAmount.mul(rate);\n    // Increment total amount of wei raised.\n    weiRaised = weiRaised.add(weiAmount);\n\n    token.mint(beneficiary, tokens);\n    Purchase(msg.sender, beneficiary, weiAmount, tokens);\n    forwardFunds();\n  }\n\n  /*\n  * @dev Send ether to the fund collection wallet.\n  */\n  function forwardFunds() internal {\n    wallet.transfer(msg.value);\n  }\n\n  /*\n  * @dev Similar to validPurchase() function in OpenZepellin Crowdsale.sol.\n  * @dev Includes check for isPurchaseEnabled.\n  * @returns true if the transaction can buy tokens.\n  */\n  function validPurchase() internal view returns (bool) {\n    bool nonZeroPurchase = msg.value != 0;\n    bool capReached = hasEnded();\n    return isPurchaseEnabled && nonZeroPurchase && !capReached;\n  }\n\n  /*\n  * @dev Determines if the crowdsale has ended.\n  * @dev Similar to hasEnded() function in OpenZepellin CappedCrowdsale.sol.\n  * @returns true if the cap has not been reached.\n  */\n  function hasEnded() public view returns (bool) {\n    bool capReached = weiRaised >= cap;\n    return capReached;\n  }\n\n  /**\n  * @dev Change the conversion rate at which tokens may be purchased.\n  * @param _rate Conversion rate of wei to tokens.\n  */\n  function setRate(uint256 _rate) public onlyOwner returns (bool) {\n    rate = _rate;\n    return true;\n  }\n\n  /**\n  * @dev Enable or disable the ability to purchase tokens.\n  * @dev Should not affect ability to transfer tokens.\n  */\n  function togglePurchases() public onlyOwner returns (bool) {\n    isPurchaseEnabled = !isPurchaseEnabled;\n    return true;\n  }\n\n  /**\n  * @dev Destroy the contract and drain any remaining ether.\n  */\n  function selfDestruct() public onlyOwner {\n    selfdestruct(wallet);\n  }\n}\n",
  "sourcePath": "/home/user/void-token/contracts/Crowdsale.sol",
  "compiler": {
    "name": "solc",
    "version": "0.4.18+commit.9cf6e910.Emscripten.clang"
  },
  "schemaVersion": "1.0.1",
  "updatedAt": "2018-01-11T18:42:32.548Z"
}